:1000D00012011F1200E81200601200FC1200037FE0
:0800E0000A7E001200B080EE60
:1000B000E4FDFCC3ED9FEC9E5015E4FBFA0BBB0086
:0F00C000010AEB647F4A70F50DBD00010C80E46E
:0100CF00220E
:0C011F00D209D20BD20AD208E4F5082263
:10010F00300905C290C20922200904D290D20922D7
:100003000508E508641E7054E4F508200613300B58
:100013000CC20BC296D297D204D2018004D20BD267
:1000230096200413300A0CC20AD296C297D206D283
:10003300018004D20AD29720011530080CC208C2ED
:1000430096C297D206D2048006D208D296D29720BF
:0D005300070AD296D297D20BD20AD2082209
:09013700D290D291D292D293220F
:1000E800D206D204D201D207D203D202D200D2055C
:0400F800E4F5092200
:1000600012013720901030030DC203E4F509C206D7
:10007000D204D201D20720911030020DC202E4F561
:1000800009D206C204D201D20720921030000DC25C
:1000900000E4F509D206D204C201D2072093103041
:1000A000050DC205E4F509D206D204D201C2072229
:1000FC000509E509B41E0BE4F509D203D202D200BE
:03010C00D20522F7
:0300000002012BCF
:0C012B00787FE4F6D8FD7581210200D039
:00000001FF
