:1002E10012034B1203D17BFF7A03799075280075B5
:1002F10029C8D20EE4FDFC1201187BFF7A007903B4
:10030100752806752940C20E7D407C06120118121F
:0703110004101201E280FB61
:1003D100D20AD209C20CD20DD20BD208E4F51A22EC
:1003E100300A05C20AC29022200A04D20AD29022FF
:10039000200C16D20CD290300906C209C2918007F7
:0A03A000200904D209D291C20C22F8
:10000300200C24D20CD291E4F523C2907FC87E0049
:10001300120370D2907FC87E001203700523E5237C
:07002300C3940440E5C20C88
:01002A0022B3
:10018500051AE51A641E7054E4F51A200613300D9D
:100195000CC20DC296D297D204D2018004D20DD2E0
:1001A50096200413300B0CC20BD296C297D206D2FE
:1001B500018004D20BD29720011530080CC208C269
:1001C50096C297D206D2048006D208D296D297203C
:0D01D500070AD296D297D20DD20BD2082283
:10023F00200613300D0CC20DC296D297D204D201F4
:10024F008004D20DD296200413300B0CC20BD29621
:10025F00C297D206D2018004D20BD297200115305B
:10026F00080CC208C296C297D206D2048006D208E2
:10027F00D296D29720070AD296D297D20DD20BD20E
:02028F00082243
:10034B00E4F523AF231203180523E523C3940240DE
:10035B00F2E4F5C875CDFC75CBFC75CC6775CA6737
:04036B00D2ADD2CA73
:01036F00226B
:03041000D2AF2246
:04040C0043870122FF
:1001E200E4F523E52375F009A42410F8E664017010
:1001F20040E52375F009A4240FF8E6D394004031BA
:10020200E52375F009A42408F808E6FA08E6F912CD
:100212000406E52375F009A4240FF816E52375F00A
:1002220009A4240DF8E6FE08E64E7005AF2312037A
:0D023200180523E523C3940240A902040C23
:060118008B238A248925D7
:10011E00E4FFEF75F009A42408F808E6FA08E64AA9
:10012E006009EFC3940250030F80E7EF640260464C
:10013E00AA24A925EF75F009A42408F8A62308A679
:10014E000208A601EF75F009A4240BF8A60408A670
:10015E0005EF75F009A4240DF8A62808A629EF7559
:10016E00F009A4240FF8E4F6A20E33FEEF75F009A1
:06017E00A42410F8A606FF
:010184002258
:10031800EF75F009A42408F876000876000876003E
:10032800EF75F009A4240BF8E4F608F6EF75F00968
:10033800A4240DF8E4F608F6EF75F009A4240FF8E4
:03034800E4F622B6
:03002B0002002EA2
:10002E00C0E0C0F0C083C082C0D075D000C000C098
:0D003E0001C002C003C004C005C006C00719
:10004B00C2CF752200E52275F009A42408F808E652
:10005B00FA08E6AE024E70030200F1E52275F009D4
:10006B00A4240BF8E6FE08E64E706BE52275F0094A
:10007B00A42410F8E6B4010CE52275F009A4240FB2
:10008B00F8068031E52275F009A42408F808E6FA91
:10009B0008E6F9120406E52275F009A4240FF816F8
:1000AB00E52275F009A4240DF8E6FE08E64E70056E
:1000BB00AF22120318E52275F009A4240DF8E6FE11
:1000CB0008E6FF4E6020E52275F009A4240BF8A684
:1000DB000608A6078010E52275F009A4240BF80882
:1000EB00E616187001160522E522C394025003028E
:0200FB000050B3
:1000FD00D007D006D005D004D003D002D001D00057
:0B010D00D0D0D082D083D0F0D0E03200
:0903FD00D290D291D292D2932247
:1003AA00D206D204D201D207D203D202D200D20597
:0403BA00E4F51B2229
:100291001203FD20901030030DC203E4F51BC206CA
:1002A100D204D201D20720911030020DC202E4F52E
:1002B1001BD206C204D201D20720921030000DC217
:1002C10000E4F51BD206D204C201D20720931030FC
:1002D100050DC205E4F51BD206D204D201C20722E4
:1003BE00051BE51BB41E0BE4F51BD203D202D200C3
:0303CE00D2052233
:10037000E4FDFCC3ED9FEC9E5015E4FBFA0BBB00C3
:0F038000010AEB647F4A70F50DBD00010C80E4AB
:01038F00224B
:030000000203F107
:0C03F100787FE4F6D8FD7581290202E156
:060406008A838982E47381
:00000001FF
