:10000300120047E4FF12007D92007F061200637F17
:100013000112007D92007F071200637FC87E0012E9
:04002300002780DF53
:0700A1007590FFE4F5A022B9
:10004700D200E4FF120063D2007F01120063C200F6
:0C0057007F06120063C2007F06020063F7
:0300AE008FA022FE
:100063007E01EEA807088002C333D8FCFE300003EC
:090073004290226306FFEE529058
:01007C002261
:0600A8007590FFAF9022ED
:10007D007D01EDA807088002C333D8FCFDD2001224
:07008D000063E5905D24FF14
:010094002249
:10002700E4FDFCC3ED9FEC9E5015E4FBFA0BBB000F
:0F003700010AEB647F4A70F50DBD00010C80E4F7
:010046002297
:0300000002009566
:0C009500787FE4F6D8FD7581200200039E
:00000001FF
