:040000000200333295
:01000B0032C2
:0100130032BA
:01001B0032B2
:0100230032AA
:03002B0002017C53
:03008C0002002E41
:03002E0002008F3E
:10008F001201FE90000212036C120223120226804C
:10009F00FB858208850B09750A0185095AD20585EA
:1000AF0008820204421202E9E433FFC0071202EC95
:1000BF00D007EF600AE50AB40100E433FF8F0AE5C9
:1000CF000A24FF920585095A850882020442858217
:1000DF000C850E0DC200850D5AD205850C820204C7
:1000EF0042850D59850C821204ABE433FF24FF3097
:1000FF000001B3E433FEA201300201B3E433FDEE9D
:10010F005207D3EF5D7001C39202EF24FF9201EE0D
:10011F0024FF300001B3920022A2002285820F85B6
:10012F001110C20385105AC205850F82020442B214
:10013F000385105AA2039205850F8202044243875A
:10014F000122E58275F007A4FF2421F876000876D6
:10015F0000EF2421FF2402F8760008760074042FA4
:10016F00F8760008760074062FF8760022C0E0C0FB
:10017F00F0C007C006C005C004C003C001C000C066
:10018F00D075D000C2CF7F00EF75F007A4FE2421F9
:10019F00F9870409870519EC4D6039EE2421FE24F7
:1001AF0002F9870409870519EC4D701D74062EF8A6
:1001BF00E604F674042EF8860308860618EB4E60E4
:1001CF0013A70309A70619800B1CBCFF011DA70469
:1001DF0009A705190FBF080040AED0D0D000D0013D
:1001EF00D003D004D005D006D007D0F0D0E0327FB6
:1001FF00008F82C007120151D0070FBF080040F1D6
:10020F0075C80075CDFC75CBFC75CC6775CA67D208
:10021F00ADD2CA22D2AF227F00EF75F007A42421FE
:10022F00F92406F8E6603B870509870619C007C061
:10023F0006C005C001C0008D828E83120031D00030
:10024F00D001D005D006D007E614F6E92404F987CB
:10025F000509870619ED4E70098F82C007120151EB
:10026F00D0070FBF080040B102014DAE82AF837DB2
:10027F0000ED75F007A42421F9870309870419EB12
:10028F004C6008BD080050030D80E6BD080122ED4B
:10029F0075F007A4FD2421F8A60608A607ED242172
:1002AF00FD2402F8A65A08A65B74042DF8A65C0874
:1002BF00A65D74062DF8760022858212851413C26E
:1002CF000485135AD205851282020442851359857B
:1002DF0012821204AB4002D20422A20422C20422D0
:1002EF00858215851D16851E1B851F1C751701E43C
:1002FF00F518F519F51A85165AD2058515820204D7
:10030F00421202E9E433FFC0071202ECD007EF609C
:10031F0011E519451AB40100E433FF8F193395E045
:10032F00F51AE519451A700B85165AD205851582EF
:10033F0002044222E519451A700122E5174518B447
:10034F000100E433FF8F173395E0F518E5174518D3
:10035F0024FF920585165A851582020442AE82AF9C
:10036F0083EE4F700302038ABE0106BF0003020330
:10037F00A4BE0206BF00030203D8227511077582BF
:10038F000112012BE4F55AF55B755CE8755D03907E
:10039F00013E02027A7514067582011202C8750BAE
:1003AF00077582011200A0E4F55AF55B755CC8F57C
:1003BF005D9002DB12027A755A01755B00755CC89D
:1003CF00755D009000B402027A75140675820112F1
:1003DF0002C8751D07751EE8751F0375820112028D
:1003EF00EFE4F55AF55B755CC8F55D9002DB120220
:1003FF007A755A01755B00755CC8755D00900310C6
:10040F0012027A755A03755B00755CC8755D0090B2
:10041F00034302027AE582FF7004855A8022BF01EE
:10042F0004855A9022BF0204855AA022BF03038578
:10043F005AB022AF82855AF005F07401800225E090
:10044F00D5F0FBFEEF7013200509EEF4FDE58052A9
:10045F00058004EE4580FD8D8022BF011320050924
:10046F00EEF4FDE59052058004EE4590FD8D90224F
:10047F00BF0213200509EEF4FDE5A052058004EE3E
:10048F0045A0FD8DA022BF0312200509EEF4FFE564
:10049F00B052078004EE45B0FF8FB022AF827E00CE
:1004AF008559F005F07401800225E0D5F0FBFD853C
:1004BF00595AD2058F82C007C006C005120442D018
:1004CF0005D006D007EF7011ED5580B40100E4336D
:1004DF00FCB40100E433FE803CBF0111ED5590B434
:1004EF000100E433FCB40100E433FE8028BF0211A5
:1004FF00ED55A0B40100E433FCB40100E433FE80F9
:10050F0014BF0311E5B05205EDB40100E433FFB49D
:09051F000100E433FEEE24FF228A
:06006200E478FFF6D8FD72
:100040007900E94400601B7A0090052C780175A0C6
:1000500000E493F2A308B8000205A0D9F4DAF2751F
:02006000A0FFFF
:100068007800E84400600A790175A000E4F309D833
:10007800FC7800E84400600C7900900001E4F0A3EB
:04008800D8FCD9FACD
:0F003100E47375815D120528E582600302002EDD
:0405280075820022B6
:00000001FF
