:040000000200333295
:01000B0032C2
:0100130032BA
:01001B0032B2
:0100230032AA
:03002B0002012EA1
:03008C0002002E41
:03002E0002008F3E
:10008F001201B09000001202F01201D51201D880B7
:10009F00FB858208850B09750A0185091CD202852B
:1000AF0008820203B412029BE433FFC00712029EC0
:1000BF00D007EF600AE50AB40100E433FF8F0AE5C9
:1000CF000A24FF920285091C8508820203B48582E7
:1000DF000C850E0DC200850D1CC202850C82020319
:1000EF00B4B200850D1CA2009202850C820203B4EB
:1000FF0043870122E58275F007A4FF2421F87600DB
:10010F00087600EF2421FF2402F8760008760074A9
:10011F00042FF8760008760074062FF8760022C0B8
:10012F00E0C0F0C007C006C005C004C003C001C0D6
:10013F0000C0D075D000C2CF7F00EF75F007A4FECE
:10014F002421F9870409870519EC4D6039EE242124
:10015F00FE2402F9870409870519EC4D701D7406FA
:10016F002EF8E604F674042EF8860308860618EBBC
:10017F004E6013A70309A70619800B1CBCFF011DB6
:10018F00A70409A705190FBF080040AED0D0D000B3
:10019F00D001D003D004D005D006D007D0F0D0E0E6
:1001AF00327F008F82C007120103D0070FBF0800F4
:1001BF0040F175C80075CDFC75CBFC75CC6775CA61
:1001CF0067D2ADD2CA22D2AF227F00EF75F007A45B
:1001DF002421F92406F8E6603B870509870619C034
:1001EF0007C006C005C001C0008D828E831200318A
:1001FF00D000D001D005D006D007E614F6E92404CC
:10020F00F9870509870619ED4E70098F82C007120D
:10021F000103D0070FBF080040B10200FFAE82AF4D
:10022F00837D00ED75F007A42421F9870309870466
:10023F0019EB4C6008BD080050030D80E6BD0801A6
:10024F0022ED75F007A4FD2421F8A60608A607EDF8
:10025F002421FD2402F8A61C08A61D74042DF8A65F
:10026F001E08A61F74062DF876002285820F8511B1
:10027F0010C20185101CD202850F820203B48510B3
:10028F001B850F8212041D4002D20122A20122C23D
:10029F000122858212851813851916851A17751470
:1002AF000175150085131CD2028512820203B41248
:1002BF00029BE433FFC00712029ED007EF6011E5E7
:1002CF00144515B40100E433FF8F143395E0F51591
:1002DF00E514451524FF920285131C851282020333
:1002EF00B4AE82AF83EE4F700302030EBE0106BFA2
:1002FF000003020328BE0206BF000302035C22753F
:10030F000E077582011200DDE4F51CF51D751EE860
:10031F00751F039000F002022C75110675820112F1
:10032F00027A750B077582011200A0E4F51CF51D0A
:10033F00751EC8F51F90028D12022C751C01751DBC
:10034F0000751EC8751F009000B402022C751106AF
:10035F0075820112027A7518077519E8751A0375F7
:10036F0082011202A1E4F51CF51D751EC8F51F9040
:10037F00028D12022C751C01751D00751EC8751F8C
:10038F00009002BE02022CE582FF7004851C8022C1
:10039F00BF0104851C9022BF0204851CA022BF034D
:1003AF0003851CB022AF82851CF005F0740180021A
:1003BF0025E0D5F0FBFEEF7013200209EEF4FDE50A
:1003CF008052058004EE4580FD8D8022BF011320F1
:1003DF000209EEF4FDE59052058004EE4590FD8D87
:1003EF009022BF0213200209EEF4FDE5A052058012
:1003FF0004EE45A0FD8DA022BF0312200209EEF4EA
:10040F00FFE5B052078004EE45B0FF8FB022AF82F8
:10041F007E00851BF005F07401800225E0D5F0FB0E
:10042F00FD851B1CD2028F82C007C006C0051203B8
:10043F00B4D005D006D007EF7011ED5580B4010090
:10044F00E433FCB40100E433FE803CBF0111ED55F1
:10045F0090B40100E433FCB40100E433FE8028BF04
:10046F000211ED55A0B40100E433FCB40100E433F4
:10047F00FE8014BF0311E5B05205EDB40100E43363
:0B048F00FFB40100E433FEEE24FF2266
:06006200E478FFF6D8FD72
:100040007900E94400601B7A0090049E780175A055
:1000500000E493F2A308B8000205A0D9F4DAF2751F
:02006000A0FFFF
:100068007800E84400600A790175A000E4F309D833
:10007800FC7800E84400600C7900900001E4F0A3EB
:04008800D8FCD9FACD
:0F003100E47375815812049AE582600302002E71
:04049A007582002245
:00000001FF
