:040000000200333295
:01000B0032C2
:0100130032BA
:01001B0032B2
:0100230032AA
:03002B000201319E
:03008F0002002E3E
:03002E000200923B
:100092001201B39000041203681201D81201DB802E
:1000A200FB858208850B09750A0185095AD20285EA
:1000B200088202047F12029EE433FFC0071202A1EB
:1000C200D007EF600AE50AB40100E433FF8F0AE5C6
:1000D2000A24FF920285095A85088202047F8582DA
:1000E2000C850E0DC200850D5AC202850C820204D7
:1000F2007FB200850D5AA2009202850C8202047F13
:1001020043870122E58275F007A4FF2421F87600D7
:10011200087600EF2421FF2402F8760008760074A6
:10012200042FF8760008760074062FF8760022C0B5
:10013200E0C0F0C007C006C005C004C003C001C0D3
:1001420000C0D075D000C2CF7F00EF75F007A4FECB
:100152002421F9870409870519EC4D6039EE242121
:10016200FE2402F9870409870519EC4D701D7406F7
:100172002EF8E604F674042EF8860308860618EBB9
:100182004E6013A70309A70619800B1CBCFF011DB3
:10019200A70409A705190FBF080040AED0D0D000B0
:1001A200D001D003D004D005D006D007D0F0D0E0E3
:1001B200327F008F82C007120106D0070FBF0800EE
:1001C20040F175C80075CDFC75CBFC75CC6775CA5E
:1001D20067D2ADD2CA22D2AF227F00EF75F007A458
:1001E2002421F92406F8E6603B870509870619C031
:1001F20007C006C005C001C0008D828E8312003187
:10020200D000D001D005D006D007E614F6E92404C8
:10021200F9870509870619ED4E70098F82C007120A
:100222000106D0070FBF080040B1020102AE82AF43
:10023200837D00ED75F007A42421F9870309870463
:1002420019EB4C6008BD080050030D80E6BD0801A3
:1002520022ED75F007A4FD2421F8A60608A607EDF5
:100262002421FD2402F8A65A08A65B74042DF8A6E0
:100272005C08A65D74062DF876002285820F851132
:1002820010C20185105AD202850F8202047F8510A6
:1002920059850F821204E84002D20122A20122C231
:1002A2000122858212851A13851B18851C19751463
:1002B20001E4F515F516F51785135AD20285128257
:1002C20002047F12029EE433FFC0071202A1D0078C
:1002D200EF6011E5164517B40100E433FF8F1633C2
:1002E20095E0F517E5164517700B85135AD202856E
:1002F200128202047F22E5164517700122E5144599
:1003020015B40100E433FF8F143395E0F515E514BD
:0F031200451524FF920285135A85128202047F3B
:03008C00751F0AD3
:1003210085821D751E0075827F02032DAF825307E2
:100331007F851D82C00712045EE582D00754804F7D
:10034100F55A851D82020440E58290056993F58284
:1003510002032D851E82120349E51E04F51EC39575
:070361001F4003751E00227E
:0A05690040792430191202780010C6
:10036800AE82AF83EE4F700302038FBE0106BF005B
:10037800030203A9BE0206BF00030203DDBE040692
:10038800BF000302042922750E077582011200E0DE
:10039800E4F55AF55B755CE8755D039000F30202BD
:1003A8002F75110675820112027D750B0775820182
:1003B8001200A3E4F55AF55B755CC8F55D900290F0
:1003C80012022F755A01755B00755CC8755D009047
:1003D80000B702022F75110675820112027D751A87
:1003E80007751BE8751C037582011202A4E4F55A0F
:1003F800F55B755C0AF55D90029012022F755A0143
:10040800755B00755CC8755D009002C512022F759A
:100418005A03755B00755CC8755D009002F80202AE
:100428002F758203120321E4F55AF55B755CF475A8
:100438005D0190035402022FE582FF7004855A8003
:1004480022BF0104855A9022BF0204855AA022BF08
:100458000303855AB022AF827E00EF7004AE80801D
:1004680013BF0104AE90800CBF0204AEA08005BF8C
:100478000302AEB08E8222AF82855AF005F0740175
:10048800800225E0D5F0FBFEEF7013200209EEF4A0
:10049800FDE58052058004EE4580FD8D8022BF0178
:1004A80013200209EEF4FDE59052058004EE459014
:1004B800FD8D9022BF0213200209EEF4FDE5A05243
:1004C800058004EE45A0FD8DA022BF03122002097D
:1004D800EEF4FFE5B052078004EE45B0FF8FB0227E
:1004E800AF827E008559F005F07401800225E0D5C1
:1004F800F0FBFD85595AD2028F82C007C006C0059D
:1005080012047FD005D006D007EF7011ED5580B4E6
:100518000100E433FCB40100E433FE803CBF011168
:10052800ED5590B40100E433FCB40100E433FE80DF
:1005380028BF0211ED55A0B40100E433FCB401005A
:10054800E433FE8014BF0311E5B05205EDB4010099
:0D055800E433FFB40100E433FEEE24FF2283
:06006200E478FFF6D8FD72
:100040007900E94400601B7A00900573780175A07F
:1000500000E493F2A308B8000205A0D9F4DAF2751F
:02006000A0FFFF
:100068007800E84400600A790175A000E4F309D833
:10007800FC7800E84400600C7900900001E4F0A3EB
:04008800D8FCD9FACD
:0F003100E47375815D120565E582600302002EA0
:040565007582002279
:00000001FF
