:03000000020006F5
:03005F0002000399
:0300030002006296
:100062000200927E007F00C3EE94FFEF64809480D2
:10007200501D7C007D00C3EC94FFED6480948050A1
:10008200070CBC00F10D80EE0EBE00DB0F80D82203
:0E0092007590F012006575900F12006580F2F7
:06003500E478FFF6D8FD9F
:100013007900E94400601B7A009000A4780175A080
:1000230000E493F2A308B8000205A0D9F4DAF2754C
:02003300A0FF2C
:10003B007800E84400600A790175A000E4F309D860
:10004B00FC7800E84400600C7900900001E4F0A318
:04005B00D8FCD9FAFA
:0D0006007581071200A0E58260030200036F
:0400A0007582002243
:00000001FF
