:10080E001200037F021204AE1208CA12037D80FB8F
:0A08880040792430191202780010A4
:0308A50001630AE2
:0A087E008F61E4F5627F7F02076ED0
:10076E00751180E511F45FF512AF611205ECE5111C
:09077E005F4512FDAF610206B2F5
:09089C00EF90088893FF02076E3B
:1007FC00AF6212089C0562E562C395634003E4F5A1
:02080C00622266
:100718008F0E8D0F8A0C8B0D750A00750B01E4F591
:0E07280008F509E50A450B24FF92020202487B
:1005C0001208C492001208C7300011E509450870EE
:1005D000047F0180027F007508008F09E509450846
:0B05E0007009D202AD0FAF0E120248EE
:0105EB0022ED
:10066700E50945086020E50B450A70047F01800213
:100677007F00750A008F0BE50A450B24FF9202AD38
:070687000FAF0E1202482222
:0B085D008F1E8D1FC203D20202024852
:0E084E00AD1FAF1E1202B39200200002D203B3
:01085C002279
:0308C400A203226A
:0308C700C2032247
:10081E008F658D66756401E56424FF9202020248BD
:10075400E56424FF9202AD66AF65120248E5647059
:0A076400047F0180027F008F6422F1
:10082E008F688D69756701E56724FF9202020248A1
:10068E001208C492001208C730000CE56770047F90
:10069E000180027F008F67E56724FF9202AD69AF8C
:0406AE006802024894
:1006B200EFFB7A0070038D8022EB64014A70038D98
:1006C2009022EB64024A70038DA022EB64034A700D
:0406D200028DB022C3
:0603D6008F118D128B1344
:1003DC00851314AF13EF3395E0FEE5122FFFE43EC7
:1003EC00FEAD14ED3395E0FCC3ED9FEE6480F8ECAC
:1003FC00648098501EC3EC648094804012D3ED94BA
:10040C0007EC648094805007C202AF1112024805B9
:03041C001480C089
:01041F0022BA
:1005EC00E4FEEFFD7C007004AE80801CED64014CD9
:1005FC007004AE908012ED64024C7004AEA08008C2
:0A060C00ED64034C7002AEB0AF06BF
:0106160022C1
:100248007E01A805EE088002C333D8FCFEEFFD7CD2
:10025800007011200207EEF45580FB8004E5804E03
:10026800FB8B8022ED64014C7011200207EEF455DF
:1002780090FD8004E5904EFD8D9022EFFD7C00649A
:10028800027011200207EEF455A0FB8004E5A04E91
:10029800FB8BA022ED64034C7010200207EEF4558E
:0A02A800B0FF8004E5B04EFF8FB0F8
:0102B2002229
:0202B300AA0798
:1002B5007901C201A805E9088002C333D8FCF9AF6A
:1002C50002D202120248EAFF7E00700DE5805970E5
:1002D50003C38001D392018039EF64014E700DE5AF
:1002E50090597003C38001D392018026EAFF7E00F6
:1002F5006402700DE5A0597003C38001D39201809B
:1003050011EF64034E700BE5B0597003C38001D340
:040315009201A201AE
:0103190022C1
:1004AE008F10EF7003020787E510640170030207D7
:1004BE00A0E51064027003020592E5106403700358
:1004CE0002052CE51064047003020420E510640696
:0F04DE0070030207B9E510640770031204ED22E2
:100787007D077F0112081E7BFF7A077954751601D2
:090797007517F4E4FDFC02031ADD
:1007A0007D037F011208B77BFF7A0679D6751601A3
:0907B0007517F4E4FDFC02031AC4
:100592007BFD7D037F0112083E7BFF7A06793F7562
:1005A20016017517F4E4FDFC12031A7BFF7A067933
:0E05B200F77516017517F47DBF7C0B02031A56
:10052C007D067F0112085D7D077F0112082E7BFF7F
:10053C007A08794E7516007517C8E4FDFC12031A7B
:10054C007BFF7A06798E7516007517C87D017C00C5
:03055C0002031A7D
:100420007D067F0112085D7BE87A037D077F01125C
:1004300007187BFF7A08794E75160075170AE4FDD8
:10044000FC12031A7BFF7A0579C07516007517C870
:100450007D017C0012031A7BFF7A0679677516000E
:0A0460007517C87D037C0002031A23
:1007B9007F0312087E7BFF7A0779FC75160175178E
:0707C900F4E4FDFC02031A39
:1004ED007F807E251207367BFF7A087968751600A6
:1004FD0075170AE4FDFC12031A7BFF7A08797375F0
:10050D00160075170A7D017C0012031A7BFF7A080D
:0F051D0079AE7516037517E87D037C0002031A8B
:0408C0004387012247
:10055F00EF75F008A42421F87600087600087600DD
:10056F00EF75F008A42424F8E4F608F6EF75F00808
:10057F00A42426F8E4F608F6EF75F008A42428F86A
:03058F00E4F6226D
:03002B0002012FA0
:10012F00C0E0C0F0C0D075D000C000C002C004C095
:03013F0005C007F1
:10014200C2CFE4FFEFC3940874809480505BEF75D4
:10015200F008A42421F808E6FA08E6AC024C60464E
:10016200EF75F008A42424F8E6FC08E64C7028EFAA
:1001720075F008A42428F806EF75F008A42426F8E0
:10018200E6FC08E6FD4C601EEF75F008A42424F896
:10019200A60408A605800FEF75F008A42424F80829
:0901A200E616187001160F809B8F
:1001AB00D007D005D004D002D000D0D0D0F0D0E012
:0101BB003211
:10000300E4FEEEC39408748094805008AF06120592
:100013005F0E80EEE4F5C875CDFC75CBFC75CC673F
:0700230075CA67D2ADD2CA15
:01002A0022B3
:0308CA00D2AF2288
:10037D00E4F510C3E5109408748094805048E5109E
:10038D0075F008A42428F8E6D39400748094804076
:10039D0031E51075F008A42421F808E6FA08E6F90D
:1003AD0012005BE51075F008A42428F816E5107509
:1003BD00F008A42426F8E6FE08E64E7005AF1012EC
:0903CD00055F051080AD0208C0B7
:06031A008B118A12891309
:10032000E4FFEF75F008A42421F808E6FA08E64A8D
:10033000600DEFC394087480948050030F80E3EF46
:1003400064086038AA12A913EF75F008A42421F8F4
:10035000A61108A60208A601EF75F008A42424F847
:10036000A60408A605EF75F008A42426F8A616082A
:0C037000A617EF75F008A42428F8E4F6A6
:01037C00225E
:1007D000426F6E6A6F757220746F7574206C65203D
:0707E0006D6F6E64650A00F5
:0508A800016C00C10419
:10073600AB07AA06E4F9F87F807E70FDFC12046A16
:0D074600EFF404438920F58D759850D28E94
:010753002283
:1007E700EFFD3395E04D600CBF0A027F0D8F993006
:0507F70099FDC29922EA
:060617008B118A12891309
:02061D00E4FEF9
:10061F00AB11AA12A9138E8275830012002EF51446
:0D062F00FD3395E04D6008AF141207E70E93
:02063C0080E15B
:01063E002299
:09089200E4FF309804AF99C2980C
:01089B00223A
:0B0868003098071208928F6CD2042217
:0B087300300407AF6C1207E7D204222C
:0908AE007BFF7A0779D0020617DE
:0908B7008F6B8D6A7DFF0206B211
:1006D6007DFFAF6B1206B2C202AD6AAF6B12024863
:1006E600056AD3E56A9407748094804003E4F56A4A
:0106F60022E1
:10083E008F1B8D198B1C851C18851C1D851C1A225F
:10063F007DFFAF1B1206B2AB18AD19AF1B1203D65D
:10064F000518AF18EF3395E0FED3EF9407EE6480F3
:08065F0094804003851C182261
:1006F700AB1AAD19AF1B1203D6051AAF1AEF339514
:10070700E0FED3EF9407EE648094804003851D1AC2
:0107170022BF
:030000000201BC3E
:0C01BC00787FE4F6D8FD75816C02020328
:10002E00BB010CE58229F582E5833AF583E0225087
:10003E0006E92582F8E622BBFE06E92582F8E222D1
:0D004E00E58229F582E5833AF583E49322EB
:10046A00C2D5E830E70FB2D5E4C39BFBE49AFAE4BD
:10047A0099F9E498F8EC30E717B2D51204A0120003
:10048A009DE4C39BFBE49AFAE499F9E498F88003A3
:10049A0012009D30D50DE4C39FFFE49EFEE49DFD4E
:0404AA00E49CFC22B0
:06005B008A838982E47330
:1001C80002080EE493A3F8E493A34003F68001F237
:1001D80008DFF48029E493A3F85407240CC8C33338
:1001E800C4540F4420C8834004F456800146F6DF07
:1001F800E4800B01020408102040809008A5E47EEA
:10020800019360BCA3FF543F30E509541FFEE493FB
:10021800A360010ECF54C025E060A840B8E493A3C2
:10022800FAE493A3F8E493A3C8C582C8CAC583CAED
:10023800F0A3C8C582C8CAC583CADFE9DEE780BEA5
:0108AD00004A
:1000610075F008758200EF2FFFEE33FECD33CDCC56
:1000710033CCC58233C5829BED9AEC99E5829840D9
:100081000CF582EE9BFEED9AFDEC99FC0FD5F0D6B6
:10009100E4CEFBE4CDFAE4CCF9A88222B800C1B9E0
:1000A1000059BA002DEC8BF084CFCECDFCE5F0CB1E
:1000B100F97818EF2FFFEE33FEED33FDEC33FCEB57
:1000C10033FB10D703994004EB99FB0FD8E5E4F912
:1000D100FA227818EF2FFFEE33FEED33FDEC33FCFF
:1000E100C933C910D7059BE99A4007EC9BFCE99AF3
:1000F100F90FD8E0E4C9FAE4CCFB2275F010EF2F38
:10010100FFEE33FEED33FDCC33CCC833C810D70737
:100111009BEC9AE899400AED9BFDEC9AFCE899F872
:0E0121000FD5F0DAE4CDFBE4CCFAE4C8F92205
:00000001FF
