:10096B001200037F051204E6120A231203A880FB70
:0A09E100407924301912027800104A
:0309FE0001670A84
:0A09D7008F65E4F5667F7F0208B328
:1008B300751180E511F45FF512AF6512070CE511B0
:0908C3005F4512FDAF650207D389
:0909F500EF9009E193FF0208B341
:10095900AF661209F50566E566C395674003E4F5D8
:02096900662204
:0B09B6008F1E8D1FC203D202020273CD
:0E099B00AD1FAF1E1202DE9200200002D2033A
:0109A900222B
:030A1D00A203220F
:030A2000C20322EC
:10097B008F698D6A756801E56824FF920202027324
:10089900E56824FF9202AD6AAF69120273E56870D8
:0A08A900047F0180027F008F6822A7
:1007D300EFFB7A0070038D8022EB64014A70038D76
:1007E3009022EB64024A70038DA022EB64034A70EB
:0407F300028DB022A1
:060452008F118D128B13C7
:10045800851314AF13EF3395E0FEE5122FFFE43E4A
:10046800FEAD14ED3395E0FCC3ED9FEE6480F8EC2F
:10047800648098501EC3EC648094804012D3ED943D
:1004880007EC648094805007C202AF111202730512
:030498001480C00D
:01049B00223E
:10070C00E4FEEFFD7C007004AE80801CED64014CB7
:10071C007004AE908012ED64024C7004AEA08008A0
:0A072C00ED64034C7002AEB0AF069E
:0107360022A0
:100273007E01A805EE088002C333D8FCFEEFFD7CA7
:10028300007011200207EEF45580FB8004E5804ED8
:10029300FB8B8022ED64014C7011200207EEF455B4
:1002A30090FD8004E5904EFD8D9022EFFD7C00646F
:1002B300027011200207EEF455A0FB8004E5A04E66
:1002C300FB8BA022ED64034C7010200207EEF45563
:0A02D300B0FF8004E5B04EFF8FB0CD
:0102DD0022FE
:0202DE00AA076D
:1002E0007901C201A805E9088002C333D8FCF9AF3F
:1002F00002D202120273EAFF7E00700DE58059708F
:1003000003C38001D392018039EF64014E700DE583
:1003100090597003C38001D392018026EAFF7E00CA
:100320006402700DE5A0597003C38001D39201806F
:1003300011EF64034E700BE5B0597003C38001D315
:040340009201A20183
:010344002296
:1004E6008F10EF70030208CCE51064017003020858
:1004F600E5E5106402700302065AE5106403700312
:100506000205F4E5106404700302049CE51064051A
:100516007003020688E51064067003020916E510EA
:08052600640770031205B52201
:1008CC007D077F0112097B7BFF7A087999751601E8
:0908DC007517F4E4FDFC0203456C
:1008E500E4FD7F01120A107BFF7A08791B7516015A
:0908F5007517F4E4FDFC02034553
:10065A007BFD7D037F0112098B7BFF7A07795F752A
:10066A0016017517F4E4FDFC1203457BFF7A08793D
:0E067A003C7516017517F47DBF7C0B0203451D
:1005F4007D077F031209B67D077F011209AA7BFFDD
:100604007A09799B7516007517C8E4FDFC12034539
:100614007BFF7A0779F77516007517C87D037C0090
:0306240002034589
:10049C007D077F031209B67BE87A037D077F011283
:1004AC00087B7BFF7A09799B7516007517C8E4FDEC
:1004BC00FC1203457BFF7A0679B47516007517C8D4
:1004CC007D037C001203457BFF7A07798775160044
:0A04DC007517C87D057C000203457A
:100688007D017F031205727BFF7A0679E0751600FB
:100698007517C8E4FDFC1203457BFF7A04790175E0
:0C06A80016007517C87D037C0002034596
:100916007F031209D77BFF7A097959751601751776
:07092600F4E4FDFC020345AF
:1005B5007F807E2512085D7BFF7A0979C17516005B
:1005C50075170AE4FDFC1203457BFF7A0979CC75A2
:1005D500160075170A7D037C001203457BFF7A0A16
:0F05E50079077516037517E87D057C000203453D
:040A190043870122EC
:10062700EF75F008A42421F8760008760008760014
:10063700EF75F008A42424F8E4F608F6EF75F0083F
:10064700A42426F8E4F608F6EF75F008A42428F8A1
:03065700E4F622A4
:03002B0002015A75
:10015A00C0E0C0F0C0D075D000C000C002C004C06A
:03016A0005C007C6
:10016D00C2CFE4FFEFC3940874809480505BEF75A9
:10017D00F008A42421F808E6FA08E6AC024C604623
:10018D00EF75F008A42424F8E6FC08E64C7028EF7F
:10019D0075F008A42428F806EF75F008A42426F8B5
:1001AD00E6FC08E6FD4C601EEF75F008A42424F86B
:1001BD00A60408A605800FEF75F008A42424F808FE
:0901CD00E616187001160F809B64
:1001D600D007D005D004D002D000D0D0D0F0D0E0E7
:0101E60032E6
:10000300E4FEEEC39408748094805008AF06120691
:10001300270E80EEE4F5C875CDFC75CBFC75CC6777
:0700230075CA67D2ADD2CA15
:01002A0022B3
:030A2300D2AF222D
:1003A800E4F510C3E5109408748094805048E51073
:1003B80075F008A42428F8E6D3940074809480404B
:1003C80031E51075F008A42421F808E6FA08E6F9E2
:1003D800120086E51075F008A42428F816E51075B3
:1003E800F008A42426F8E6FE08E64E7005AF1012C1
:0903F8000627051080AD020A1968
:060345008B118A128913DE
:10034B00E4FFEF75F008A42421F808E6FA08E64A62
:10035B00600DEFC394087480948050030F80E3EF1B
:10036B0064086038AA12A913EF75F008A42421F8C9
:10037B00A61108A60208A601EF75F008A42424F81C
:10038B00A60408A605EF75F008A42426F8A61608FF
:0C039B00A617EF75F008A42428F8E4F67B
:0103A7002233
:10092D00426F6E6A6F757220746F7574206C6520DE
:07093D006D6F6E64650A0096
:050A0100017000C104BA
:10085D00AB07AA06E4F9F87F807E70FDFC12052E29
:0D086D00EFF404438920F58D759850D28E6C
:01087A00225B
:10094400EFFD3395E04D600CBF0A027F0D8F9930A7
:0509540099FDC299228B
:060737008B118A128913E8
:02073D00E4FED8
:10073F00AB11AA12A9138E82758300120047F5140C
:0D074F00FD3395E04D6008AF141209440E13
:02075C0080E13A
:01075E002278
:0909EB00E4FF309804AF99C298B2
:0109F40022E0
:0B09C1003098071209EB8F70D204225F
:0B09CC00300407AF70120944D204226F
:090A07007BFF7A09792D02073703
:090A10008F6F8D6E7DFF0207D38C
:10081B007DFFAF6F1207D3C202AD6EAF6F120273C3
:10082B00056ED3E56E9407748094804003E4F56EF7
:01083B00229A
:10098B008F1B8D198B1C851C18851C1D851C1A2211
:10075F007DFFAF1B1207D3AB18AD19AF1B1204529D
:10076F000518AF18EF3395E0FED3EF9407EE6480D2
:08077F0094804003851C182240
:10083C00AB1AAD19AF1B120452051AAF1AEF339550
:10084C00E0FED3EF9407EE648094804003851D1A7C
:01085C002279
:0C09AA008F6C8D6D756B01D20202027320
:1007F700120A1D9200120A2030000CE56B70047F6C
:100807000180027F008F6BE56B24FF9202AD6DAF15
:040817006C020273FA
:10087B008F0E8D0F8A0C8B0D750A00750B01E4F52D
:0E088B0008F509E50A450B24FF9202020273EC
:1006B400120A1D9200120A20300011E50945087043
:1006C400047F0180027F007508008F09E509450851
:0B06D4007009D202AD0FAF0E120273CE
:0106DF0022F8
:10078700E50945086020E50B450A70047F018002F2
:100797007F00750A008F0BE50A450B24FF9202AD17
:0707A7000FAF0E12027322D6
:100572008F628D63E4F511C3E51194087480948051
:1005820050307B007A007964D202AD111207AE7B43
:10059200007A007961D202AD111207AED202AD111A
:1005A200AF62120273D202AD11AF63120273051170
:0205B20080C502
:0105B4002224
:1006E000E4F511C3E511940874809480501DAD1198
:1006F000AF621202DE920020000D7B007A00796466
:0B070000C202AD111207AE051180D837
:01070B0022CB
:10040100E4F511C3E5119408748094805042AD1154
:10041100AF641208FE9200200032AD11AF611208E4
:10042100FE9201B201A2019202AD11AF63120273F9
:100431007B007A007961A2019202AD111207AE7BB5
:10044100007A007964D202AD111207AE051180B3B2
:010451002288
:1007AE007F01AE05A806EF088002C333D8FCFF20F8
:1007BE00020A12002EFEEFF45EFF800512002E4F8D
:0507CE00FFEF020074C2
:1008FE007E01A805EE088002C333D8FC5F7003C3E7
:07090E008001D39202A20256
:0109150022BF
:030000000201E713
:0C01E700787FE4F6D8FD75817002022ECE
:10002E00BB010689828A83E0225002E722BBFE02D0
:09003E00E32289828A83E4932203
:10004700BB010CE58229F582E5833AF583E022506E
:1000570006E92582F8E622BBFE06E92582F8E222B8
:0D006700E58229F582E5833AF583E49322D2
:10007400BB010689828A83F0225002F722BBFE016B
:02008400F32265
:10052E00C2D5E830E70FB2D5E4C39BFBE49AFAE4F8
:10053E0099F9E498F8EC30E717B2D5120564120079
:10054E00C8E4C39BFBE49AFAE499F9E498F88003B3
:10055E001200C830D50DE4C39FFFE49EFEE49DFD5E
:04056E00E49CFC22EB
:060086008A838982E47305
:1001F30002096BE493A3F8E493A34003F68001F2AE
:1002030008DFF48029E493A3F85407240CC8C3330C
:10021300C4540F4420C8834004F456800146F6DFDB
:10022300E4800B01020408102040809009FEE47E64
:10023300019360BCA3FF543F30E509541FFEE493D0
:10024300A360010ECF54C025E060A840B8E493A397
:10025300FAE493A3F8E493A3C8C582C8CAC583CAC2
:10026300F0A3C8C582C8CAC583CADFE9DEE780BE7A
:010A060000EF
:10008C0075F008758200EF2FFFEE33FECD33CDCC2B
:10009C0033CCC58233C5829BED9AEC99E5829840AE
:1000AC000CF582EE9BFEED9AFDEC99FC0FD5F0D68B
:1000BC00E4CEFBE4CDFAE4CCF9A88222B800C1B9B5
:1000CC000059BA002DEC8BF084CFCECDFCE5F0CBF3
:1000DC00F97818EF2FFFEE33FEED33FDEC33FCEB2C
:1000EC0033FB10D703994004EB99FB0FD8E5E4F9E7
:1000FC00FA227818EF2FFFEE33FEED33FDEC33FCD4
:10010C00C933C910D7059BE99A4007EC9BFCE99AC7
:10011C00F90FD8E0E4C9FAE4CCFB2275F010EF2F0C
:10012C00FFEE33FEED33FDCC33CCC833C810D7070C
:10013C009BEC9AE899400AED9BFDEC9AFCE899F847
:0E014C000FD5F0DAE4CDFBE4CCFAE4C8F922DA
:00000001FF
