:10025F001200031203121202DB7BFF7A0179C075C1
:10026F000D00750E0AE4FDFC1200B27BFF7A0279D5
:10027F00EF750D00750E0A7D017C001200B27BFF39
:10028F007A01796E750D00750EFA7D037C001200F0
:09029F00B212002812021080FBCB
:10000300E4F508AF081202A80508E508C394084000
:10001300F2E4F5C875CDFC75CBFC75CC6775CA6782
:04002300D2ADD2CABE
:0100270022B6
:03002800D2AF2232
:0403390043870122D3
:10021000E4F508E50875F008A42429F8E6D394006D
:100220004031E50875F008A42422F808E6FA08E64B
:10023000F9120333E50875F008A42429F816E50837
:1002400075F008A42427F8E6FE08E64E7005AF080E
:0F0250001202A80508E508C3940840B702033955
:0600B2008B088A09890A8F
:1000B800E4FFEF75F008A42422F808E6FA08E64AF7
:1000C8006009EFC3940850030F80E7EF64086038B5
:1000D800AA09A90AEF75F008A42422F8A60808A618
:1000E8000208A601EF75F008A42425F8A60408A6BE
:1000F80005EF75F008A42427F8A60D08A60EEF75DD
:08010800F008A42429F8E4F634
:0101100022CC
:1002A800EF75F008A42422F8760008760008760096
:1002B800EF75F008A42425F8E4F608F6EF75F008C1
:1002C800A42427F8E4F608F6EF75F008A42429F822
:0302D800E4F62227
:03002B0002002EA2
:10002E00C0E0C0F0C0D075D000C000C002C004C097
:03003E0005C007F3
:10004100C2CFE4FFEF75F008A42422F808E6FA080D
:10005100E6AC024C6046EF75F008A42425F8E6FCF6
:1000610008E64C7028EF75F008A42429F806EF750E
:10007100F008A42427F8E6FC08E6FD4C601EEF75A5
:10008100F008A42425F8A60408A605800FEF75F052
:1000910008A42425F808E616187001160FBF08A455
:1000A100D007D005D004D002D000D0D0D0F0D0E01D
:0100B100321C
:0C031200D209D20BD20AD208E4F50F2267
:10030200300905C290C20922200904D290D20922E2
:10011100050FE50F641E7054E4F50F200613300B34
:100121000CC20BC296D297D204D2018004D20BD258
:1001310096200413300A0CC20AD296C297D206D274
:10014100018004D20AD29720011530080CC208C2DE
:1001510096C297D206D2048006D208D296D29720B0
:0D016100070AD296D297D20BD20AD20822FA
:10016E00200613300B0CC20BC296D297D204D201CA
:10017E008004D20BD296200413300A0CC20AD296F7
:10018E00C297D206D2018004D20AD297200115302E
:10019E00080CC208C296C297D206D2048006D208B4
:1001AE00D296D29720070AD296D297D20BD20AD2E3
:0201BE00082215
:09032A00D290D291D292D293221A
:1002DB00D206D204D201D207D203D202D200D20567
:0402EB00E4F5102204
:1001C00012032A20901030030DC203E4F510C2067A
:1001D000D204D201D20720911030020DC202E4F500
:1001E00010D206C204D201D20720921030000DC2F4
:1001F00000E4F510D206D204C201D20720931030D9
:10020000050DC205E4F510D206D204D201C20722C0
:1002EF000510E510B41E0BE4F510D203D202D200B4
:0302FF00D2052203
:0300000002031EDA
:0C031E00787FE4F6D8FD75816102025F73
:060333008A838982E47355
:00000001FF
