:100017007F0A12027F1202D41200031202F912029F
:03002700F580FB66
:0C02D400D209D20BD20AD208E4F50822AD
:1002C400300905C290C20922200904D290D2092221
:10014B000508E508641E7054E4F508200613300B0F
:10015B000CC20BC296D297D204D2018004D20BD21E
:10016B0096200413300A0CC20AD296C297D206D23A
:10017B00018004D20AD29720011530080CC208C2A4
:10018B0096C297D206D2048006D208D296D2972076
:0D019B00070AD296D297D20BD20AD20822C0
:0902EC00D290D291D292D2932259
:10000300D206D204D201D207D203D202D200D20541
:04001300E4F50922E5
:1001A8001202EC20901030030DC203E4F509C206D8
:1001B800D204D201D20720911030020DC202E4F518
:1001C80009D206C204D201D20720921030000DC213
:1001D80000E4F509D206D204C201D20720931030F8
:1001E800050DC205E4F509D206D204D201C20722E0
:1002B1000509E509B41E0BE4F509D203D202D20007
:0302C100D2052241
:10027F00E4FCFDFEFB7AC079A8F812002EE47BE0C7
:10028F007A2EF9F81201F8C3E49FFFE49EAD07FF41
:10029F00AE05E4F5C88FCD8FCB8ECC8ECAD2ADD242
:0102AF00CA84
:0102B000222B
:0302F900D2AF225F
:0402F5004387012218
:03002B0002023C92
:10023C00C0E0C0F0C083C082C0D075D000C000C088
:10024C0001C002C003C004C005C006C007C2CF1263
:10025C0001A81202B112014BD007D006D005D00470
:10026C00D003D002D001D000D0D0D082D083D0F037
:03027C00D0E0329D
:030000000202E019
:0C02E000787FE4F6D8FD7581210200173C
:10002E00E88FF0A4CC8BF0A42CFCE98EF0A42CFC71
:10003E008AF0EDA42CFCEA8EF0A4CDA8F08BF0A4EF
:10004E002DCC3825F0FDE98FF0A42CCD35F0FCEB4E
:10005E008EF0A4FEA9F0EB8FF0A4CFC5F02ECD3913
:0F006E00FEE43CFCEAA42DCE35F0FDE43CFC2280
:1001F800C2D5E830E70FB2D5E4C39BFBE49AFAE432
:1002080099F9E498F8EC30E717B2D512022E1200EB
:10021800B9E4C39BFBE49AFAE499F9E498F88003FB
:100228001200B930D50DE4C39FFFE49EFEE49DFDA6
:04023800E49CFC2224
:10007D0075F008758200EF2FFFEE33FECD33CDCC3A
:10008D0033CCC58233C5829BED9AEC99E5829840BD
:10009D000CF582EE9BFEED9AFDEC99FC0FD5F0D69A
:1000AD00E4CEFBE4CDFAE4CCF9A88222B800C1B9C4
:1000BD000059BA002DEC8BF084CFCECDFCE5F0CB02
:1000CD00F97818EF2FFFEE33FEED33FDEC33FCEB3B
:1000DD0033FB10D703994004EB99FB0FD8E5E4F9F6
:1000ED00FA227818EF2FFFEE33FEED33FDEC33FCE3
:1000FD00C933C910D7059BE99A4007EC9BFCE99AD7
:10010D00F90FD8E0E4C9FAE4CCFB2275F010EF2F1B
:10011D00FFEE33FEED33FDCC33CCC833C810D7071B
:10012D009BEC9AE899400AED9BFDEC9AFCE899F856
:0E013D000FD5F0DAE4CDFBE4CCFAE4C8F922E9
:00000001FF
