:10028B0012000312056912051E7F807E2512047071
:10029B001205747BFF7A03795075170075180AE401
:1002AB00FDFC1202F17BFF7A057932751700751888
:1002BB000A7D017C001202F17BFF7A0379F7751737
:1002CB00007518FA7D037C001202F17BFF7A04792A
:1002DB00377517007518FA7D057C001202F11200B4
:0602EB00281203A880FBAD
:10000300E4F512AF121204A40512E512C3940840DA
:10001300F2E4F5C875CDFC75CBFC75CC6775CA6782
:04002300D2ADD2CABE
:0100270022B6
:03002800D2AF2232
:04057000438701229A
:1003A800E4F512E51275F008A42429F8E6D39400C0
:1003B8004031E51275F008A42422F808E6FA08E6A8
:1003C800F9120178E51275F008A42429F816E51247
:1003D80075F008A42427F8E6FE08E64E7005AF126B
:0F03E8001204A40512E512C3940840B702057071
:0602F1008B128A13891430
:1002F700E4FFEF75F008A42422F808E6FA08E64AB6
:100307006009EFC3940850030F80E7EF6408603873
:10031700AA13A914EF75F008A42422F8A61208A6B8
:100327000208A601EF75F008A42425F8A60408A67C
:1003370005EF75F008A42427F8A61708A618EF7587
:08034700F008A42429F8E4F6F3
:01034F00228B
:1004A400EF75F008A42422F8760008760008760098
:1004B400EF75F008A42425F8E4F608F6EF75F008C3
:1004C400A42427F8E4F608F6EF75F008A42429F824
:0304D400E4F62229
:03002B0002019738
:10019700C0E0C0F0C0D075D000C000C002C004C02D
:0301A70005C00789
:1001AA00C2CFE4FFEF75F008A42422F808E6FA08A3
:1001BA00E6AC024C6046EF75F008A42425F8E6FC8C
:1001CA0008E64C7028EF75F008A42429F806EF75A4
:1001DA00F008A42427F8E6FC08E6FD4C601EEF753B
:1001EA00F008A42425F8A60408A605800FEF75F0E8
:1001FA0008A42425F808E616187001160FBF08A4EB
:10020A00D007D005D004D002D000D0D0D0F0D0E0B2
:01021A0032B1
:09056000D290D291D292D29322E2
:10051E00D206D204D201D207D203D202D200D20521
:04052E00E4F51922B5
:1003500012056020901230030FC203E4F519C206A3
:10036000D204D201D207D20B20911230020FC20266
:10037000E4F519D206C204D201D207D20B209212A0
:1003800030000FC200E4F519D206D204C201D20730
:10039000D20B20931230050FC205E4F519D206D214
:0803A00004D201C207D20B22B6
:100532000519E519B4320BE4F519D203D202D2003F
:03054200D20522BD
:07056900D20AD209D20822D8
:1003F70020060F300A08C20AC296D2978004D20A92
:10040700D29620040F300908C209D296C2978004F9
:10041700D209D297200111300808C208C296C297A4
:100427008006D208D296D297200704D296D2972276
:10047000E4FCFD7BE07A2EF9F812005BA804A905E4
:10048000AA06AB077F007E707D997C141200E6C33C
:10049000E49FFF7598504389208F8D8F8DD299C22C
:0304A000ACD28E4D
:0104A3002236
:0E054500AE073099FDC299BF0A027E0D8E9955
:010553002285
:0604D7008B128A13891448
:1004DD001205098E158F16E4FDFCC3ED9516EC95EE
:1004ED00155018AB12AA13A9148D828C8312002EED
:0B04FD00FF1205450DBD00010C80DF63
:0105080022D0
:10021B004C45465420427574746F6E206973207080
:10022B007265737365642E2E2E0A0052494748542B
:10023B0020427574746F6E206973207072657373CE
:10024B0065642E2E2E0A005741524E494E472042CE
:10025B007574746F6E206973207072657373656447
:10026B002E2E2E0A0053544F5020427574746F6E0D
:10027B0020697320707265737365642E2E2E0A00CD
:03057400C20B2295
:10043700300B3520060AC20B7BFF7A02791B802519
:1004470020040AC20B7BFF7A027936801820010A42
:10045700C20B7BFF7A027952800B20070BC20B7B02
:09046700FF7A0279701204D72219
:03000000020554A2
:0C055400787FE4F6D8FD75816102028B0F
:10002E00BB010CE58229F582E5833AF583E0225087
:10003E0006E92582F8E622BBFE06E92582F8E222D1
:0D004E00E58229F582E5833AF583E49322EB
:10005B00E88FF0A4CC8BF0A42CFCE98EF0A42CFC44
:10006B008AF0EDA42CFCEA8EF0A4CDA8F08BF0A4C2
:10007B002DCC3825F0FDE98FF0A42CCD35F0FCEB21
:10008B008EF0A4FEA9F0EB8FF0A4CFC5F02ECD39E6
:0F009B00FEE43CFCEAA42DCE35F0FDE43CFC2253
:1000AA0075F008758200EF2FFFEE33FECD33CDCC0D
:1000BA0033CCC58233C5829BED9AEC99E582984090
:1000CA000CF582EE9BFEED9AFDEC99FC0FD5F0D66D
:1000DA00E4CEFBE4CDFAE4CCF9A88222B800C1B997
:1000EA000059BA002DEC8BF084CFCECDFCE5F0CBD5
:1000FA00F97818EF2FFFEE33FEED33FDEC33FCEB0E
:10010A0033FB10D703994004EB99FB0FD8E5E4F9C8
:10011A00FA227818EF2FFFEE33FEED33FDEC33FCB5
:10012A00C933C910D7059BE99A4007EC9BFCE99AA9
:10013A00F90FD8E0E4C9FAE4CCFB2275F010EF2FEE
:10014A00FFEE33FEED33FDCC33CCC833C810D707EE
:10015A009BEC9AE899400AED9BFDEC9AFCE899F829
:0E016A000FD5F0DAE4CDFBE4CCFAE4C8F922BC
:060178008A838982E47312
:10050900E4FFFE12017E600C0FEF70010E09E97025
:05051900F20A80EF2250
:10017E00BB010689828A83E0225002E722BBFE027F
:09018E00E32289828A83E49322B2
:00000001FF
