:1002FA001200031203607BFF7A00792E754D037595
:10030A004EE8E4FDFC12024C7BFF7A0079FB754D46
:10031A0003754EE87D017C0012024C12002812027D
:03032A00AB80FBAA
:10000300E4F548AF4812032D0548E548C39408407A
:10001300F2E4F5C875CDFC75CBFC75CC6775CA6782
:04002300D2ADD2CABE
:0100270022B6
:03002800D2AF2232
:04038100438701228B
:1002AB00E4F548E54875F008A4240FF8E6D394006C
:1002BB004031E54875F008A42408F808E6FA08E68A
:1002CB00F912037BE54875F008A4240FF816E548EE
:1002DB0075F008A4240DF8E6FE08E64E7005AF484D
:0F02EB0012032D0548E548C3940840B70203816C
:06024C008B488A49894A33
:10025200E4FFEF75F008A42408F808E6FA08E64A75
:100262006009EFC3940850030F80E7EF6408603819
:10027200AA49A94AEF75F008A42408F8A64808A6D6
:100282000208A601EF75F008A4240BF8A60408A63C
:1002920005EF75F008A4240DF8A64D08A64EEF75DB
:0802A200F008A4240FF8E4F6B3
:0102AA002231
:10032D00EF75F008A42408F876000876000876002A
:10033D00EF75F008A4240BF8E4F608F6EF75F00855
:10034D00A4240DF8E4F608F6EF75F008A4240FF8D0
:03035D00E4F622A1
:03002B000201C807
:1001C800C0E0C0F0C0D075D000C000C002C004C0FC
:0301D80005C00758
:1001DB00C2CFE4FFEF75F008A42408F808E6FA088C
:1001EB00E6AC024C6046EF75F008A4240BF8E6FC75
:1001FB0008E64C7028EF75F008A4240FF806EF758D
:10020B00F008A4240DF8E6FC08E6FD4C601EEF7523
:10021B00F008A4240BF8A60408A605800FEF75F0D0
:10022B0008A4240BF808E616187001160FBF08A4D3
:10023B00D007D005D004D002D000D0D0D0F0D0E081
:01024B003280
:0F036000E4F553755403F54FF550F551F552225E
:10002E00E55314603814605114606A1470030200B2
:10003E00BF1470030200DC240560030200FAC290B4
:10004E00D291D2920550E5507002054FC39403E54C
:10005E004F940050030200FA755301806EC290D285
:10006E0091D2920550E5507002054FC39402E54FB0
:10007E00940040787553028052C290D291D292056C
:10008E0050E5507002054FC39401E54F9400405C5B
:10009E007553038036D290D291C2920550E55070BE
:1000AE0002054FC39403E54F9400404075530480FE
:1000BE001AD290C291D2920550E5507002054FC3EC
:1000CE009402E54F94004024755305E4801AC290C3
:1000DE00D291D2920550E5507002054FC39401E5BE
:0D00EE004F94004007E4F553F54FF5502204
:1000FB00E55414603814605114606A1470030201E3
:10010B008C1470030201A9240560030201C7C29578
:10011B00D296D2970552E55270020551C39403E56E
:10012B0051940050030201C7755401806EC295D2E1
:10013B0096D2970552E55270020551C39402E551D0
:10014B00940040787554028052C295D296D297058E
:10015B0052E55270020551C39401E5519400405C85
:10016B007554038036D295D296C2970552E55270DC
:10017B00020551C39403E55194004040755404802B
:10018B001AD295C296D2970552E55270020551C309
:10019B009402E55194004024755405E4801AC295ED
:1001AB00D296D2970552E55270020551C39401E5E0
:0D01BB005194004007E4F554F551F552222F
:0300000002036F89
:0C036F00787FE4F6D8FD7581540202FA94
:06037B008A838982E4730D
:00000001FF
