:1002FA001200031203607BFF7A00792E751D0375C5
:10030A001EE8E4FDFC12024C7BFF7A0079FB751DA6
:10031A0003751EE87D017C0012024C1200281202AD
:03032A00AB80FBAA
:0F036000E4F523752403F51FF520F521F522227E
:10002E00E52314603814605114606A1470030200E2
:10003E00BF1470030200DC240560030200FAC290B4
:10004E00D291D2920520E5207002051FC39403E5DC
:10005E001F940050030200FA752301806EC290D2E5
:10006E0091D2920520E5207002051FC39402E51F70
:10007E00940040787523028052C290D291D292059C
:10008E0020E5207002051FC39401E51F9400405C1B
:10009E007523038036D290D291C2920520E520704E
:1000AE0002051FC39403E51F94004040752304808E
:1000BE001AD290C291D2920520E5207002051FC37C
:1000CE009402E51F94004024752305E4801AC29023
:1000DE00D291D2920520E5207002051FC39401E54E
:0D00EE001F94004007E4F523F51FF52022C4
:1000FB00E52414603814605114606A147003020113
:10010B008C1470030201A9240560030201C7C29578
:10011B00D296D2970522E52270020521C39403E5FE
:10012B0021940050030201C7752401806EC295D241
:10013B0096D2970522E52270020521C39402E52190
:10014B00940040787524028052C295D296D29705BE
:10015B0022E52270020521C39401E5219400405C45
:10016B007524038036D295D296C2970522E522706C
:10017B00020521C39403E5219400404075240480BB
:10018B001AD295C296D2970522E52270020521C399
:10019B009402E52194004024752405E4801AC2954D
:1001AB00D296D2970522E52270020521C39401E570
:0D01BB002194004007E4F524F521F52222EF
:10000300E4F518AF1812032D0518E518C394024040
:10001300F2E4F5C875CDFC75CBFC75CC6775CA6782
:04002300D2ADD2CABE
:0100270022B6
:03002800D2AF2232
:04038100438701228B
:1002AB00E4F518E51875F008A4240FF8E6D39400CC
:1002BB004031E51875F008A42408F808E6FA08E6BA
:1002CB00F912037BE51875F008A4240FF816E5184E
:1002DB0075F008A4240DF8E6FE08E64E7005AF187D
:0F02EB0012032D0518E518C3940240B7020381D2
:06024C008B188A19891AC3
:10025200E4FFEF75F008A42408F808E6FA08E64A75
:100262006009EFC3940250030F80E7EF6402603825
:10027200AA19A91AEF75F008A42408F8A61808A666
:100282000208A601EF75F008A4240BF8A60408A63C
:1002920005EF75F008A4240DF8A61D08A61EEF753B
:0802A200F008A4240FF8E4F6B3
:0102AA002231
:10032D00EF75F008A42408F876000876000876002A
:10033D00EF75F008A4240BF8E4F608F6EF75F00855
:10034D00A4240DF8E4F608F6EF75F008A4240FF8D0
:03035D00E4F622A1
:03002B000201C807
:1001C800C0E0C0F0C0D075D000C000C002C004C0FC
:0301D80005C00758
:1001DB00C2CFE4FFEF75F008A42408F808E6FA088C
:1001EB00E6AC024C6046EF75F008A4240BF8E6FC75
:1001FB0008E64C7028EF75F008A4240FF806EF758D
:10020B00F008A4240DF8E6FC08E6FD4C601EEF7523
:10021B00F008A4240BF8A60408A605800FEF75F0D0
:10022B0008A4240BF808E616187001160FBF02A4D9
:10023B00D007D005D004D002D000D0D0D0F0D0E081
:01024B003280
:0300000002036F89
:0C036F00787FE4F6D8FD7581240202FAC4
:06037B008A838982E4730D
:00000001FF
