:0B0227001201ED1201C612000380FE60
:1001A600E4FDFCC3ED9FEC9E5015E4FBFA0BBB008F
:0F01B600010AEB647F4A70F50DBD00010C80E477
:0101C5002217
:0C000E00D209D20BD20AD208E4F5082275
:1001FF00300905C290C20922200904D290D20922E7
:10002E000508E508641E7054E4F508200613300B2D
:10003E000CC20BC296D297D204D2018004D20BD23C
:10004E0096200413300A0CC20AD296C297D206D258
:10005E00018004D20AD29720011530080CC208C2C2
:10006E0096C297D206D2048006D208D296D2972094
:0D007E00070AD296D297D20BD20AD20822DE
:09024800D290D291D292D29322FD
:1001C600D206D204D201D207D203D202D200D2057D
:0401D600E4F5092221
:10008B0012024820901030030DC203E4F509C2069A
:10009B00D204D201D20720911030020DC202E4F536
:1000AB0009D206C204D201D20720921030000DC231
:1000BB0000E4F509D206D204C201D2072093103016
:1000CB00050DC205E4F509D206D204D201C20722FE
:1001DA000509E509B41E0BE4F509D203D202D200DF
:0301EA00D2052219
:03000300D2AF2257
:0B023200C28C758CDCE4F58AD28C22B3
:0B023D00C28E758DDCE4F58BD28E22A2
:0C001E005389F0438901120232D2A9225A
:0C020F0053890F43891012023DD2AB222C
:1001ED00E4F5C875CDDC75CBDCF5CCF5CAD2ADD256
:0201FD00CA2214
:03000B000200DB15
:1000DB00C0E0C0F0C083C082C0D075D000C000C0EB
:1000EB0001C002C003C004C005C006C00712023223
:1000FB0012008B1201DA12002ED007D006D005D0D9
:10010B0004D003D002D001D000D0D0D082D083D085
:04011B00F0D0E0320E
:03001B0002011FC0
:10011F00C0E0C0F0C083C082C0D075D000C000C0A6
:10012F0001C002C003C004C005C006C00712023DD3
:10013F0012008B1201DA12002ED007D006D005D094
:10014F0004D003D002D001D000D0D0D082D083D041
:04015F00F0D0E032CA
:03002B000201636C
:10016300C0E0C0F0C083C082C0D075D000C000C062
:1001730001C002C003C004C005C006C007C2CF123D
:10018300008B1201DA12002ED007D006D005D0045E
:10019300D003D002D001D000D0D0D082D083D0F011
:0301A300D0E03277
:0300000002021BDE
:0C021B00787FE4F6D8FD758121020227EF
:00000001FF
