:0F005B0012008812004B7FE87E0312002780F40A
:03008800D2002281
:10004B00300005C290C20022200004D290D20022C0
:090076005389F0438901C2A9225B
:09007F0053890F438910C2AB2222
:10000300120076E4FDFCC3ED9FEC9E5016758CFC4C
:10001300758A67C28DD28C308DFDC28C0DBD0001F7
:030023000C80E36B
:0100260022B7
:1000270012007FE4FDFCC3ED9FEC9E5016758DFC1E
:10003700758B67C28FD28E308FFDC28E0DBD0001CA
:030047000C80E347
:01004A002293
:0300000002006A91
:0C006A00787FE4F6D8FD75812002005B71
:00000001FF
