:1002D50012000312067112063E7F807E251204432A
:1002E50012067C7BFF7A03799A750D00750E32E450
:1002F500FDFC12033B7BFF7A0479C8750D00750E72
:100305000A7D017C0012033B7BFF7A047988750D19
:1003150000750EFA7D037C0012033B7BFF7A05799D
:1003250007750D00750E0A7D057C0012033B120052
:06033500281203F480FB16
:10000300E4F508AF081205B10508E508C3940840F4
:10001300F2E4F5C875CDFC75CBFC75CC6775CA6782
:04002300D2ADD2CABE
:0100270022B6
:03002800D2AF2232
:040678004387012291
:1003F400E4F508E50875F008A42429F8E6D3940088
:100404004031E50875F008A42422F808E6FA08E665
:10041400F91201A9E50875F008A42429F816E508DD
:1004240075F008A42427F8E6FE08E64E7005AF0828
:0F0434001205B10508E508C3940840B702067821
:06033B008B088A09890A03
:10034100E4FFEF75F008A42422F808E6FA08E64A6B
:100351006009EFC3940850030F80E7EF6408603829
:10036100AA09A90AEF75F008A42422F8A60808A68C
:100371000208A601EF75F008A42425F8A60408A632
:1003810005EF75F008A42427F8A60D08A60EEF7551
:08039100F008A42429F8E4F6A9
:010399002241
:1005B100EF75F008A42422F876000876000876008A
:1005C100EF75F008A42425F8E4F608F6EF75F008B5
:1005D100A42427F8E4F608F6EF75F008A42429F816
:0305E100E4F6221B
:03002B000202517D
:10025100C0E0C0F0C0D075D000C000C002C004C072
:0302610005C007CE
:10026400C2CFE4FFEF75F008A42422F808E6FA08E8
:10027400E6AC024C6046EF75F008A42425F8E6FCD1
:1002840008E64C7028EF75F008A42429F806EF75E9
:10029400F008A42427F8E6FC08E6FD4C601EEF7580
:1002A400F008A42425F8A60408A605800FEF75F02D
:1002B40008A42425F808E616187001160FBF08A430
:1002C400D007D005D004D002D000D0D0D0F0D0E0F8
:0102D40032F7
:10061400300302D290300202D291300002D29230E2
:050624000502D2932243
:100652000512E512B4FA0BE4F512D203D202D2006B
:03066200D205229C
:10063E00D206D204D201D207D203D202D200D20500
:04064E00E4F512229B
:10039A0012061420901230030FE4F512C206D2049A
:1003AA00D201D207D20EC20320911230020FE4F515
:1003BA0012D206C204D201D207D20EC2022092126F
:1003CA0030000FE4F512D206D204C201D207D20ECF
:1003DA00C20020931230050FE4F512D206D204D2DD
:0A03EA0001C207D20EC2050206523E
:07067100D20AD209D20822CF
:1004880020060F300A08C20AC296D2978004D20A00
:10049800D29620040F300908C209D296C297800468
:1004A800D209D297200111300808C208C296C29713
:1004B8008006D208D296D297200704D296D29722E5
:0201C8008F089E
:1001CA00850809309870E59964137068F511F5107F
:1001DA00F50FF50EC298E4F50DF50CF50BF50A7856
:1001EA000A120189E4FBFAF9F8C3120178600330B4
:1001FA0098EDE4FFFEFDFCAB0DAA0CA90BA80AC3FF
:10020A0012017870028028780E120189E4FBFAF94B
:10021A00F8C31201786005E599B411B8E4FFFEFD50
:10022A00FCAB11AA10A90FA80EC31201787005D24F
:10023A000DC2B722C2983099FDC299E508B40A03E3
:06024A0075090D850999FC
:01025000228B
:10044300E4FCFD7BE07A2EF9F812005BA804A90511
:10045300AA06AB077F007E707D997C141200E6C369
:10046300E49FFF7598504389208F8D8F8DD299C259
:10047300ACD28EE4F57BF57AF57DF57CC20DC20C2A
:04048300C20BD2B71F
:010487002252
:1005FE00E57DC39414500A7466257DF8A607057D23
:06060E0022D20DC2B7224A
:06057D008B088A09890ABF
:100583001206298E0B8F0CE4FDFCC3ED950CEC9544
:100593000B5018AB08AA09A90A8D828C8312002E6E
:0D05A300FF1205FE0DBD00010C80DFD20B24
:0105B0002228
:1005E4007F7FE57AC3957C50107462257AF8E6FF24
:0905F400E57AC394045002057A73
:0105FD0022DB
:1004C800E57BC3957D5011300B157466257BF8E6E6
:1004D800FF1201C8057B8007E4F57BF57DC20B3070
:1004E800981CE57AB57C05E4F57AF57C7462257C80
:0F04F800F8A699E57CC394045002057CC29822B3
:100545004C45465420425554544F4E0A0052494793
:10055500485420425554544F4E0A005741524E4973
:100565004E4720425554544F4E0A0053544F502085
:08057500425554544F4E0A0098
:03067C00C20E2289
:100507001205E4EF647F60031205FE300E2F20060C
:10051700087BFF7A057945801F2004087BFF7A0551
:10052700795280142001087BFF7A057960800920C1
:0D05370007097BFF7A05797012057DC20E61
:010544002294
:0300000002066590
:0C066500787FE4F6D8FD75817D0202D597
:10002E00BB010CE58229F582E5833AF583E0225087
:10003E0006E92582F8E622BBFE06E92582F8E222D1
:0D004E00E58229F582E5833AF583E49322EB
:10005B00E88FF0A4CC8BF0A42CFCE98EF0A42CFC44
:10006B008AF0EDA42CFCEA8EF0A4CDA8F08BF0A4C2
:10007B002DCC3825F0FDE98FF0A42CCD35F0FCEB21
:10008B008EF0A4FEA9F0EB8FF0A4CFC5F02ECD39E6
:0F009B00FEE43CFCEAA42DCE35F0FDE43CFC2253
:1000AA0075F008758200EF2FFFEE33FECD33CDCC0D
:1000BA0033CCC58233C5829BED9AEC99E582984090
:1000CA000CF582EE9BFEED9AFDEC99FC0FD5F0D66D
:1000DA00E4CEFBE4CDFAE4CCF9A88222B800C1B997
:1000EA000059BA002DEC8BF084CFCECDFCE5F0CBD5
:1000FA00F97818EF2FFFEE33FEED33FDEC33FCEB0E
:10010A0033FB10D703994004EB99FB0FD8E5E4F9C8
:10011A00FA227818EF2FFFEE33FEED33FDEC33FCB5
:10012A00C933C910D7059BE99A4007EC9BFCE99AA9
:10013A00F90FD8E0E4C9FAE4CCFB2275F010EF2FEE
:10014A00FFEE33FEED33FDCC33CCC833C810D707EE
:10015A009BEC9AE899400AED9BFDEC9AFCE899F829
:0E016A000FD5F0DAE4CDFBE4CCFAE4C8F922BC
:10017800EB9FF5F0EA9E42F0E99D42F0E89C45F0DD
:010188002254
:100189007401FF3395E0FEFDFC080808E62FFFF631
:1001990018E63EFEF618E63DFDF618E63CFCF622AA
:0601A9008A838982E473E1
:10062900E4FFFE1201AF600C0FEF70010E09E970D3
:05063900F20A80EF222F
:1001AF00BB010689828A83E0225002E722BBFE024E
:0901BF00E32289828A83E4932281
:00000001FF
