:10021B001200031205CB12057B7F807E2512039AF9
:10022B001205D67BFF7A0279F3750D00750E0AE481
:10023B00FDFC1202947BFF7A0579A3750D00750EF8
:10024B00057D017C001202947BFF7A04791B750DEE
:10025B0000750E0A7D057C001202947BFF7A0379F0
:10026B00DB750D00750EFA7D077C001202947BFF87
:10027B007A047955750D00750EFA7D0B7C00120210
:09028B009412002812034B80FBC1
:10000300E4F508AF081204C60508E508C3940840E0
:10001300F2E4F5C875CDFC75CBFC75CC6775CA6782
:04002300D2ADD2CABE
:0100270022B6
:03002800D2AF2232
:0405D2004387012238
:10034B00E4F508E50875F008A42429F8E6D3940031
:10035B004031E50875F008A42422F808E6FA08E60F
:10036B00F9120178E50875F008A42429F816E508B8
:10037B0075F008A42427F8E6FE08E64E7005AF08D2
:0F038B001204C60508E508C3940840B70205D25E
:060294008B088A09890AAB
:10029A00E4FFEF75F008A42422F808E6FA08E64A13
:1002AA006009EFC3940850030F80E7EF64086038D1
:1002BA00AA09A90AEF75F008A42422F8A60808A634
:1002CA000208A601EF75F008A42425F8A60408A6DA
:1002DA0005EF75F008A42427F8A60D08A60EEF75F9
:0802EA00F008A42429F8E4F651
:0102F20022E9
:1004C600EF75F008A42422F8760008760008760076
:1004D600EF75F008A42425F8E4F608F6EF75F008A1
:1004E600A42427F8E4F608F6EF75F008A42429F802
:0304F600E4F62207
:03002B0002019738
:10019700C0E0C0F0C0D075D000C000C002C004C02D
:0301A70005C00789
:1001AA00C2CFE4FFEF75F008A42422F808E6FA08A3
:1001BA00E6AC024C6046EF75F008A42425F8E6FC8C
:1001CA0008E64C7028EF75F008A42429F806EF75A4
:1001DA00F008A42427F8E6FC08E6FD4C601EEF753B
:1001EA00F008A42425F8A60408A605800FEF75F0E8
:1001FA0008A42425F808E616187001160FBF08A4EB
:10020A00D007D005D004D002D000D0D0D0F0D0E0B2
:01021A0032B1
:0905C200D290D291D292D2932280
:10057B00D206D204D201D207D203D202D200D205C4
:04058B00E4F50F2262
:1002F3001205C220901230030FC203E4F50FC206A9
:10030300D204D201D207D20D20911230020FC202C1
:10031300E4F50FD206C204D201D207D20D20921205
:1003230030000FC200E4F50FD206D204C201D20797
:10033300D20D20931230050FC205E4F50FD206D279
:0803430004D201C207D20D2211
:1005A300050FE50FB4320BE4F50FD203D202D200EC
:0305B300D205224C
:0705CB00D20AD209D2082276
:1003DB0020060F300A08C20AC296D2978004D20AAE
:1003EB00D29620040F300908C209D296C297800416
:1003FB00D209D297200111300808C208C296C297C1
:10040B008006D208D296D297200704D296D2972292
:10039A00E4FCFD7BE07A2EF9F812005BA804A905BB
:1003AA00AA06AB077F007E707D997C141200E6C313
:1003BA00E49FFF7598504389208F8D8F8DD299C203
:1003CA00ACD28EE4F57BF57AF57DF57CC20CC20BD6
:0103DA002200
:10058F00E57DC39414500A7466257DF8A607057D92
:04059F0022D20C2236
:0604F9008B088A09890A44
:1004FF001205668E0B8F0CE4FDFCC3ED950CEC958D
:10050F000B5018AB08AA09A90A8D828C8312002EF2
:0B051F00FF12058F0DBD00010C80DFF6
:01052A0022AE
:10052B00AE07309811E599B4130AC2983098FDE5DF
:10053B0099B411F6C2983099FDC299BF0A027E0D8B
:02054B008E9987
:01054D00228B
:10054E00E57AC3957C50107462257AF8E6FFE57A59
:07055E00C394045002057A6A
:010565002273
:10041B00E57BC3957D500E7466257BF8E6FF1205D0
:10042B002B057B8005E4F57BF57D30981CE57AB5D3
:10043B007C05E4F57AF57C7462257CF8A699E57C5D
:0A044B00C394045002057CC29822FD
:10048E004C45465420425554544F4E0A005249474B
:10049E00485420425554544F4E0A005741524E492B
:1004AE004E4720425554544F4E0A0053544F50203D
:0804BE00425554544F4E0A0050
:0305D600C20D2231
:10045500300D3520060AC20D7BFF7A04798E802582
:1004650020040AC20D7BFF7A04799B801820010ABB
:10047500C20D7BFF7A0479A9800B20070BC20D7B87
:09048500FF7A0479B91204F9228E
:030000000205B640
:0C05B600787FE4F6D8FD75817D02021B01
:10002E00BB010CE58229F582E5833AF583E0225087
:10003E0006E92582F8E622BBFE06E92582F8E222D1
:0D004E00E58229F582E5833AF583E49322EB
:10005B00E88FF0A4CC8BF0A42CFCE98EF0A42CFC44
:10006B008AF0EDA42CFCEA8EF0A4CDA8F08BF0A4C2
:10007B002DCC3825F0FDE98FF0A42CCD35F0FCEB21
:10008B008EF0A4FEA9F0EB8FF0A4CFC5F02ECD39E6
:0F009B00FEE43CFCEAA42DCE35F0FDE43CFC2253
:1000AA0075F008758200EF2FFFEE33FECD33CDCC0D
:1000BA0033CCC58233C5829BED9AEC99E582984090
:1000CA000CF582EE9BFEED9AFDEC99FC0FD5F0D66D
:1000DA00E4CEFBE4CDFAE4CCF9A88222B800C1B997
:1000EA000059BA002DEC8BF084CFCECDFCE5F0CBD5
:1000FA00F97818EF2FFFEE33FEED33FDEC33FCEB0E
:10010A0033FB10D703994004EB99FB0FD8E5E4F9C8
:10011A00FA227818EF2FFFEE33FEED33FDEC33FCB5
:10012A00C933C910D7059BE99A4007EC9BFCE99AA9
:10013A00F90FD8E0E4C9FAE4CCFB2275F010EF2FEE
:10014A00FFEE33FEED33FDCC33CCC833C810D707EE
:10015A009BEC9AE899400AED9BFDEC9AFCE899F829
:0E016A000FD5F0DAE4CDFBE4CCFAE4C8F922BC
:060178008A838982E47312
:10056600E4FFFE12017E600C0FEF70010E09E970C8
:05057600F20A80EF22F3
:10017E00BB010689828A83E0225002E722BBFE027F
:09018E00E32289828A83E49322B2
:00000001FF
