:100333001204D77F807E251203D212059412057E04
:100343007BFF7A047913750D00750E0A7D017C001D
:100353001202D47BFF7A057995750D00750E0A7D1F
:10036300037C001202D47BFF7A057987750D007533
:100373000EC8E4FDFC1202D412059112038380FB24
:1004D700E4F508AF0812044D0508E508C394084081
:1004E700F2E4F5C875CDFC75CBFC75CC6775CA67AA
:0404F700D2ADD2CAE6
:0104FB0022DE
:03059100D2AF22C4
:04058D00438701227D
:10038300E4F508E50875F008A42428F8E6D39400FA
:100393004031E50875F008A42421F808E6FA08E6D8
:1003A300F91201A9E50875F008A42428F816E50850
:1003B30075F008A42426F8E6FE08E64E7005AF089B
:0F03C30012044D0508E508C3940840B702058DE4
:0602D4008B088A09890A6B
:1002DA00E4FFEF75F008A42421F808E6FA08E64AD4
:1002EA006009EFC3940850030F80E7EF6408603891
:1002FA00AA09A90AEF75F008A42421F8A60808A6F5
:10030A000208A601EF75F008A42424F8A60408A69A
:10031A0005EF75F008A42426F8A60D08A60EEF75B9
:08032A00F008A42428F8E4F611
:0103320022A8
:10044D00EF75F008A42421F87600087600087600F0
:10045D00EF75F008A42424F8E4F608F6EF75F0081B
:10046D00A42426F8E4F608F6EF75F008A42428F87D
:03047D00E4F62280
:03002B000202507E
:10025000C0E0C0F0C0D075D000C000C002C004C073
:0302600005C007CF
:10026300C2CFE4FFEF75F008A42421F808E6FA08EA
:10027300E6AC024C6046EF75F008A42424F8E6FCD3
:1002830008E64C7028EF75F008A42428F806EF75EB
:10029300F008A42426F8E6FC08E6FD4C601EEF7582
:1002A300F008A42424F8A60408A605800FEF75F02F
:1002B30008A42424F808E616187001160FBF08A432
:1002C300D007D005D004D002D000D0D0D0F0D0E0F9
:0102D30032F8
:010594002244
:010595002243
:0201C8008F089E
:1001CA0085080930986FE59964137067F511F51081
:1001DA00F50FF50EC298E4F50DF50CF50BF50A7856
:1001EA000A120189E4FBFAF9F8C3120178600330B4
:1001FA0098EDE4FFFEFDFCAB0DAA0CA90BA80AC3FF
:10020A001201787003D20122780E120189E4FBFAF6
:10021A00F9F8C31201786005E599B411B7E4FFFE55
:10022A00FDFCAB11AA10A90FA80EC3120178700326
:10023A00D20122C2983099FDC299E508B40A037521
:05024A00090D85099972
:01024F00228C
:1003D200E4FCFD7BE07A2EF9F812005BA804A90583
:1003E200AA06AB077F007E707D997C141200E6C3DB
:1003F200E49FFF7598504389208F8D8F8DD299C2CB
:10040200ACD28EE4F57AF579F57CF57BC201C200B7
:0104120022C7
:10054F00E57CC39414500A7465257CF8A607057CD6
:04055F0022D2012281
:060003008B088A09890A3E
:1000090012053AAE07E4FDEDC39E5015AB08AA09E7
:10001900A90A8D8275830012002EFF12054F0D80EB
:01002900E6F0
:01002A0022B3
:100520007F7FE579C3957B501074612579F8E6FFEC
:09053000E579C394045002057939
:01053900229F
:10041300E57AC3957C500E7465257AF8E6FF1201E0
:10042300C8057A8005E4F57AF57C30981CE579B542
:100433007B05E4F579F57B7461257BF8A699E57B6B
:0A044300C394045002057BC2982206
:1004FC004649525354204E414D45203A20004C4120
:10050C005354204E414D45203A2000454D41494C15
:04051C00203A200061
:09057E00D202751201E4F513220A
:1004800030022AE51224FE600F1460142402701B4F
:100490007BFF7A0479FC800E7BFF7A05790A80065F
:0E04A0007BFF7A0579171200030512C20222B3
:1004AE001205208F08E508647F601DE508B40D096C
:1004BE00D20212054FE4F51322E508B40803020533
:0804CE0063AF0812054F05138E
:0104D6002203
:0F056300E513D3940040077F0812054F151322AC
:060587001204800204AE24
:0300000002057284
:0C057200787FE4F6D8FD75817C0203332D
:10002E00BB010CE58229F582E5833AF583E0225087
:10003E0006E92582F8E622BBFE06E92582F8E222D1
:0D004E00E58229F582E5833AF583E49322EB
:10005B00E88FF0A4CC8BF0A42CFCE98EF0A42CFC44
:10006B008AF0EDA42CFCEA8EF0A4CDA8F08BF0A4C2
:10007B002DCC3825F0FDE98FF0A42CCD35F0FCEB21
:10008B008EF0A4FEA9F0EB8FF0A4CFC5F02ECD39E6
:0F009B00FEE43CFCEAA42DCE35F0FDE43CFC2253
:1000AA0075F008758200EF2FFFEE33FECD33CDCC0D
:1000BA0033CCC58233C5829BED9AEC99E582984090
:1000CA000CF582EE9BFEED9AFDEC99FC0FD5F0D66D
:1000DA00E4CEFBE4CDFAE4CCF9A88222B800C1B997
:1000EA000059BA002DEC8BF084CFCECDFCE5F0CBD5
:1000FA00F97818EF2FFFEE33FEED33FDEC33FCEB0E
:10010A0033FB10D703994004EB99FB0FD8E5E4F9C8
:10011A00FA227818EF2FFFEE33FEED33FDEC33FCB5
:10012A00C933C910D7059BE99A4007EC9BFCE99AA9
:10013A00F90FD8E0E4C9FAE4CCFB2275F010EF2FEE
:10014A00FFEE33FEED33FDCC33CCC833C810D707EE
:10015A009BEC9AE899400AED9BFDEC9AFCE899F829
:0E016A000FD5F0DAE4CDFBE4CCFAE4C8F922BC
:10017800EB9FF5F0EA9E42F0E99D42F0E89C45F0DD
:010188002254
:100189007401FF3395E0FEFDFC080808E62FFFF631
:1001990018E63EFEF618E63DFDF618E63CFCF622AA
:0601A9008A838982E473E1
:10053A00E4FFFE1201AF600C0FEF70010E09E970C3
:05054A00F20A80EF221F
:1001AF00BB010689828A83E0225002E722BBFE024E
:0901BF00E32289828A83E4932281
:00000001FF
